{"abi":[{"type":"constructor","inputs":[{"name":"entranceFee","type":"uint256","internalType":"uint256"},{"name":"interval","type":"uint256","internalType":"uint256"},{"name":"vrfCoordinator","type":"address","internalType":"address"},{"name":"gasLane","type":"bytes32","internalType":"bytes32"},{"name":"subscriptionId","type":"uint64","internalType":"uint64"},{"name":"callbackGasLimit","type":"uint32","internalType":"uint32"}],"stateMutability":"nonpayable"},{"type":"function","name":"buyTicket","inputs":[],"outputs":[],"stateMutability":"payable"},{"type":"function","name":"checkUpkeep","inputs":[{"name":"","type":"bytes","internalType":"bytes"}],"outputs":[{"name":"upKeepNeeded","type":"bool","internalType":"bool"},{"name":"","type":"bytes","internalType":"bytes"}],"stateMutability":"view"},{"type":"function","name":"getEntranceFee","inputs":[],"outputs":[{"name":"","type":"uint256","internalType":"uint256"}],"stateMutability":"view"},{"type":"function","name":"getLastDrawTimestamp","inputs":[],"outputs":[{"name":"","type":"uint256","internalType":"uint256"}],"stateMutability":"view"},{"type":"function","name":"getPlayer","inputs":[{"name":"indexOfPlayer","type":"uint256","internalType":"uint256"}],"outputs":[{"name":"","type":"address","internalType":"address"}],"stateMutability":"view"},{"type":"function","name":"getPlayers","inputs":[],"outputs":[{"name":"","type":"address[]","internalType":"address payable[]"}],"stateMutability":"view"},{"type":"function","name":"getRaffleState","inputs":[],"outputs":[{"name":"","type":"uint8","internalType":"enum Raffle.RaffleState"}],"stateMutability":"view"},{"type":"function","name":"getRecentWinner","inputs":[],"outputs":[{"name":"","type":"address","internalType":"address"}],"stateMutability":"view"},{"type":"function","name":"performUpkeep","inputs":[{"name":"","type":"bytes","internalType":"bytes"}],"outputs":[],"stateMutability":"nonpayable"},{"type":"function","name":"rawFulfillRandomWords","inputs":[{"name":"requestId","type":"uint256","internalType":"uint256"},{"name":"randomWords","type":"uint256[]","internalType":"uint256[]"}],"outputs":[],"stateMutability":"nonpayable"},{"type":"event","name":"EnteredRaffle","inputs":[{"name":"player","type":"address","indexed":true,"internalType":"address"}],"anonymous":false},{"type":"event","name":"RequestedRaffleWinner","inputs":[{"name":"requestId","type":"uint256","indexed":true,"internalType":"uint256"}],"anonymous":false},{"type":"event","name":"WinnerDrawn","inputs":[{"name":"winner","type":"address","indexed":true,"internalType":"address"}],"anonymous":false},{"type":"error","name":"OnlyCoordinatorCanFulfill","inputs":[{"name":"have","type":"address","internalType":"address"},{"name":"want","type":"address","internalType":"address"}]},{"type":"error","name":"Raffle__InvalidEntranceFee","inputs":[]},{"type":"error","name":"Raffle__RaffleNotOpen","inputs":[]},{"type":"error","name":"Raffle__TooEarlyToDraw","inputs":[]},{"type":"error","name":"Raffle__TransferFailed","inputs":[]},{"type":"error","name":"Raffle__UpKeepNotNeeded","inputs":[{"name":"currentBalance","type":"uint256","internalType":"uint256"},{"name":"numPlayers","type":"uint256","internalType":"uint256"},{"name":"raffleState","type":"uint256","internalType":"uint256"}]}],"bytecode":{"object":"0x61016060405234801561001157600080fd5b50604051610d5f380380610d5f83398101604081905261003091610087565b6001600160a01b0393909316608081905260a09590955260c09390935260e093909352610100929092526001600160401b03166101205263ffffffff16610140526002805460ff60a01b1916905542600155610112565b60008060008060008060c087890312156100a057600080fd5b86516020880151604089015191975095506001600160a01b03811681146100c657600080fd5b6060880151608089015191955093506001600160401b03811681146100ea57600080fd5b60a088015190925063ffffffff8116811461010457600080fd5b809150509295509295509295565b60805160a05160c05160e051610100516101205161014051610be6610179600039600061037e0152600061034701526000610321015260006103bc0152600061046801526000818160a5015261059d01526000818161020b015261024d0152610be66000f3fe6080604052600436106100915760003560e01c80636e04ff0d116100595780636e04ff0d146101735780638b5b9ccc146101a1578063de1cd986146101c3578063e55ae4e8146101d8578063edca914c146101f857600080fd5b806309bc33a714610096578063115cbaf5146100d85780631fe543e3146100ff5780634585e33b14610121578063473f1ddc14610141575b600080fd5b3480156100a257600080fd5b507f00000000000000000000000000000000000000000000000000000000000000005b6040519081526020015b60405180910390f35b3480156100e457600080fd5b50600254600160a01b900460ff166040516100cf9190610851565b34801561010b57600080fd5b5061011f61011a3660046108c0565b610200565b005b34801561012d57600080fd5b5061011f61013c366004610972565b61028d565b34801561014d57600080fd5b506002546001600160a01b03165b6040516001600160a01b0390911681526020016100cf565b34801561017f57600080fd5b5061019361018e3660046109e4565b61045d565b6040516100cf929190610a79565b3480156101ad57600080fd5b506101b661050a565b6040516100cf9190610ad2565b3480156101cf57600080fd5b506001546100c5565b3480156101e457600080fd5b5061015b6101f3366004610b1f565b61056c565b61011f61059b565b336001600160a01b037f0000000000000000000000000000000000000000000000000000000000000000161461027f5760405163073e64fd60e21b81523360048201526001600160a01b037f00000000000000000000000000000000000000000000000000000000000000001660248201526044015b60405180910390fd5b6102898282610685565b5050565b60006102a76040518060200160405280600081525061045d565b509050806102fd57600054600254479190600160a01b900460ff1660018111156102d3576102d361083b565b604051631d46b04360e11b8152600481019390935260248301919091526044820152606401610276565b60028054600160a01b60ff60a01b199091161790556040516305d3b1d360e41b81527f000000000000000000000000000000000000000000000000000000000000000060048201527f000000000000000000000000000000000000000000000000000000000000000067ffffffffffffffff166024820152600360448201527f000000000000000000000000000000000000000000000000000000000000000063ffffffff166064820152600160848201526000906001600160a01b037f00000000000000000000000000000000000000000000000000000000000000001690635d3b1d309060a4016020604051808303816000875af1158015610405573d6000803e3d6000fd5b505050506040513d601f19601f820116820180604052508101906104299190610b38565b60405190915081907fcd6e45c8998311cab7e9d4385596cac867e20a0587194b954fa3a731c93ce78b90600090a250505050565b6000606060006001547f0000000000000000000000000000000000000000000000000000000000000000426104929190610b51565b101590506000600260149054906101000a900460ff1660018111156104b9576104b961083b565b600054901591504715159015158380156104d05750825b80156104d95750815b80156104e25750805b60408051808201909152600381526203078360ec1b6020820152909890975095505050505050565b6060600080548060200260200160405190810160405280929190818152602001828054801561056257602002820191906000526020600020905b81546001600160a01b03168152600190910190602001808311610544575b5050505050905090565b600080828154811061058057610580610b78565b6000918252602090912001546001600160a01b031692915050565b7f000000000000000000000000000000000000000000000000000000000000000034146105db5760405163a11b52c960e01b815260040160405180910390fd5b6000600254600160a01b900460ff1660018111156105fb576105fb61083b565b146106195760405163349289c560e21b815260040160405180910390fd5b600080546001810182558180527f290decd9548b62a8d60345a988386fc84ba6bc95484008f6362f93160ef3e5630180546001600160a01b0319163390811790915560405190917f819fbd717c9d0b421352c5116a644ca68ba176960c33f406f08d98a27370ca2791a2565b6000805482518390839061069b5761069b610b78565b60200260200101516106ad9190610b8e565b905060008082815481106106c3576106c3610b78565b600091825260208083209190910154600280546001600160a81b0319166001600160a01b0390921691821790556040805184815292830190819052915190935061070e9291906107c1565b50426001556040516000906001600160a01b0383169047908381818185875af1925050503d806000811461075e576040519150601f19603f3d011682016040523d82523d6000602084013e610763565b606091505b50506040519091506001600160a01b038316907fb1899e5911a12372a7fa329d3051f8358e8f5156f66bcf69707ea096419681b790600090a2806107ba5760405163a1d04b3960e01b815260040160405180910390fd5b5050505050565b828054828255906000526020600020908101928215610816579160200282015b8281111561081657825182546001600160a01b0319166001600160a01b039091161782556020909201916001909101906107e1565b50610822929150610826565b5090565b5b808211156108225760008155600101610827565b634e487b7160e01b600052602160045260246000fd5b602081016002831061087357634e487b7160e01b600052602160045260246000fd5b91905290565b634e487b7160e01b600052604160045260246000fd5b604051601f8201601f1916810167ffffffffffffffff811182821017156108b8576108b8610879565b604052919050565b600080604083850312156108d357600080fd5b8235915060208084013567ffffffffffffffff808211156108f357600080fd5b818601915086601f83011261090757600080fd5b81358181111561091957610919610879565b8060051b915061092a84830161088f565b818152918301840191848101908984111561094457600080fd5b938501935b8385101561096257843582529385019390850190610949565b8096505050505050509250929050565b6000806020838503121561098557600080fd5b823567ffffffffffffffff8082111561099d57600080fd5b818501915085601f8301126109b157600080fd5b8135818111156109c057600080fd5b8660208285010111156109d257600080fd5b60209290920196919550909350505050565b600060208083850312156109f757600080fd5b823567ffffffffffffffff80821115610a0f57600080fd5b818501915085601f830112610a2357600080fd5b813581811115610a3557610a35610879565b610a47601f8201601f1916850161088f565b91508082528684828501011115610a5d57600080fd5b8084840185840137600090820190930192909252509392505050565b82151581526000602060406020840152835180604085015260005b81811015610ab057858101830151858201606001528201610a94565b506000606082860101526060601f19601f830116850101925050509392505050565b6020808252825182820181905260009190848201906040850190845b81811015610b135783516001600160a01b031683529284019291840191600101610aee565b50909695505050505050565b600060208284031215610b3157600080fd5b5035919050565b600060208284031215610b4a57600080fd5b5051919050565b81810381811115610b7257634e487b7160e01b600052601160045260246000fd5b92915050565b634e487b7160e01b600052603260045260246000fd5b600082610bab57634e487b7160e01b600052601260045260246000fd5b50069056fea26469706673582212207bcd709595770892ff3fdbda174c49dce79aed9d41ae35d5394d2cd701cb764764736f6c63430008170033","linkReferences":{}},"methodIdentifiers":{"buyTicket()":"edca914c","checkUpkeep(bytes)":"6e04ff0d","getEntranceFee()":"09bc33a7","getLastDrawTimestamp()":"de1cd986","getPlayer(uint256)":"e55ae4e8","getPlayers()":"8b5b9ccc","getRaffleState()":"115cbaf5","getRecentWinner()":"473f1ddc","performUpkeep(bytes)":"4585e33b","rawFulfillRandomWords(uint256,uint256[])":"1fe543e3"},"id":31}